S0190000556C747261736F6E69635F73656E736F722E73726563EE
S11300000C9496000C94AB000C94AB000C94AB00D5
S11300100C94AB000C94AB000C94AB000C94AB00B0
S11300200C94AB000C94AB000C94AB000C94AB00A0
S11300300C94AB000C94AB000C94AB000C94AB0090
S11300400C94AB000C94AB000C94AB000C94AB0080
S11300500C94AB00B900D200EB0004011C011C019C
S11300601C011C011C011C011C011C011C011C01A4
S11300701C011C011C011C011C011C011C011C0194
S11300801C011C011C011C011C011C011C011C0184
S11300901C011C01B900D200EB000401290142013A
S11300A05B0174018C018C018C018C018C018C012D
S11300B08C018C018C018C018C018C018C018C01D4
S11300C08C018C018C018C018C018C018C018C01C4
S11300D08C018C018C018C018C018C012901420161
S11300E05B0174019A01A101A801AF01B501B50139
S11300F0B501B501B501B501B501B501B501B5014C
S1130100B501B501B501B501B501B501B501B5013B
S1130110B501B501B501B501B501B501B501B5012B
S1130120B501B5019A01A101A801AF0111241FBEB7
S1130130CFE5D8E0DEBFCDBF10E0A0E6B0E0E4E755
S1130140F9E002C005900D92AA37B107D9F70E94D1
S1130150C5020C94B8040C94000090E0FC01E15436
S1130160F109E432F10508F067C0E65DFF4F0C9435
S1130170A304413059F42AB381E090E002C0880F0F
S1130180991F6A95E2F7822B8ABB08952AB381E00E
S113019090E002C0880F991F6A95E2F78095822348
S11301A08ABB0895413059F427B381E090E002C03E
S11301B0880F991F6A95E2F7822B87BB089527B3AE
S11301C081E090E002C0880F991F6A95E2F780955C
S11301D0822387BB0895413059F424B381E090E031
S11301E002C0880F991F6A95E2F7822B84BB089599
S11301F024B381E090E002C0880F991F6A95E2F76A
S11302008095822384BB0895413059F421B381E061
S113021090E002C0880F991F6A95E2F7822B81BB98
S1130220089521B381E090E002C0880F991F6A9578
S1130230E2F78095822381BB089590E0FC01E154AC
S1130240F109E432F10508F067C0E25BFF4F0C945A
S1130250A304413059F42BB381E090E002C0880F2D
S1130260991F6A95E2F7822B8BBB08952BB381E02B
S113027090E002C0880F991F6A95E2F78095822367
S11302808BBB0895413059F428B381E090E002C05B
S1130290880F991F6A95E2F7822B88BB089528B3CB
S11302A081E090E002C0880F991F6A95E2F780957B
S11302B0822388BB0895413059F425B381E090E04E
S11302C002C0880F991F6A95E2F7822B85BB0895B7
S11302D025B381E090E002C0880F991F6A95E2F788
S11302E08095822385BB0895413059F422B381E07F
S11302F090E002C0880F991F6A95E2F7822B82BBB7
S1130300089522B381E090E002C0880F991F6A9596
S1130310E2F78095822382BB08956295607F90E026
S1130320FC01E154F109E432F105F8F4EE58FF4F11
S11303300C94A3048BB38F708BBB8BB3682B6BBBF8
S1130340089588B38F7088BB88B3682B68BB089501
S113035085B38F7085BB85B3682B65BB089582B365
S11303608F7082BB82B3682B62BB089541E050E07A
S113037060E070E082E490E00E941D018FE99FE05C
S11303800197F1F700C0000040E050E060E070E049
S113039082E490E00E941D018FE99FE00197F1F74C
S11303A000C000000895CF93C82F40E050E062E001
S11303B070E082E490E00E941D016C2F62956F70E2
S11303C070E081E490E00E948D010E94B6016C2FE0
S11303D070E081E490E00E948D010E94B6018FECF0
S11303E097E00197F1F700C00000CF9108952FEF37
S11303F081EE94E0215080409040E1F700C000007D
S113040041E050E064E070E081E490E00E94AD00DF
S113041041E050E065E070E081E490E00E94AD00CE
S113042041E050E066E070E081E490E00E94AD00BD
S113043041E050E067E070E081E490E00E94AD00AC
S113044041E050E060E070E082E490E00E94AD00A2
S113045041E050E061E070E082E490E00E94AD0091
S113046041E050E062E070E082E490E00E94AD0080
S113047040E050E061E070E082E490E00E941D0101
S113048082E00E94D3018FE19EE40197F1F700C05E
S1130490000088E20E94D3018FEC97E00197F1F706
S11304A000C0000081E00E94D3018FE19EE4019727
S11304B0F1F700C000008CE00E94D3018FEC97E0BC
S11304C00197F1F700C0000086E00E94D3018FEC91
S11304D097E00197F1F700C000000895CF93C82F6B
S11304E041E050E062E070E082E490E00E941D018F
S11304F06C2F62956F7070E081E490E00E948D0132
S11305000E94B6016C2F70E081E490E00E948D019E
S11305100E94B601CF910895CF93DF93EC0103C0FD
S11305200E946E02219688818111FACFDF91CF91CA
S1130530089581E00E94D3018FE19EE40197F1F7D1
S113054000C0000008959FEF980F923070F461315D
S113055070F4662371F0813019F48FE7860F0CC0B4
S1130560823049F48FEB860F07C080E805C080E82D
S113057003C080E801C080E00E94D3018FEC97E0C3
S11305800197F1F700C0000008950E94F70181B3BC
S1130590816081BB82B3816082BB23E02A95F1F73D
S11305A0000082B38E7F82BB0E943D030E945F03E2
S11305B07C010E946C03EC010E945C03BE016E1975
S11305C07F0980E090E00E94A8032DEB37E346E822
S11305D055E30E940E0420E038E247E057E40E940D
S11305E00E0420E030E040E05FE30E940E040E942D
S11305F079036B017C0181E5C816D10480F00E9467
S1130600990280E690E00E948C029FE32DE083E053
S1130610915020408040E1F700C00000BBCF61E072
S113062081E00E94A3028CE690E00E948C02960175
S1130630ADECBCEC0E94A904EC01D695C795D69507
S1130640C795D695C7958C2F805D0E946E02CE010A
S1130650880F991FCC0FDD1FCC0FDD1FCC0FDD1FC2
S1130660C80FD91FC6018C1B9D0B805D0E946E02B2
S113067086E790E00E948C028DCF8FB58E7F8FBD70
S11306808FB58D7F8FBD8EB5877F8EBD8EB58F7EE6
S11306908EBD8EB581608EBD8EB58D7F8EBD8EB5BF
S11306A08B7F8EBD81B38F7B81BB8EB580688EBD01
S11306B088B7806288BF08951FBC1EBC08958EB59C
S11306C080648EBD08B605FEFDCF26B537B598B754
S11306D0906298BFC90108958EB58F7B8EBD08B610
S11306E005FEFDCF26B537B598B7906298BFC9010E
S11306F008950E94ED0388F09F5798F0B92F992729
S1130700B751B0F0E1F0660F771F881F991F1AF0F8
S1130710BA95C9F714C0B13091F00E940704B1E052
S113072008950C940704672F782F8827B85F39F051
S1130730B93FCCF3869577956795B395D9F73EF491
S113074090958095709561957F4F8F4F9F4F089539
S1130750E89409C097FB3EF4909580957095619557
S11307607F4F8F4F9F4F9923A9F0F92F96E9BB270D
S11307709395F695879577956795B795F111F8CF89
S1130780FAF4BB0F11F460FF1BC06F5F7F4F8F4FF4
S11307909F4F16C0882311F096E911C0772321F0EA
S11307A09EE8872F762F05C0662371F096E8862F82
S11307B070E060E02AF09A95660F771F881FDAF7D9
S11307C0880F9695879597F9089557FD9058440F8B
S11307D0551F59F05F3F71F04795880F97FB991F9C
S11307E061F09F3F79F08795089512161306140659
S11307F0551FF2CF4695F1DF08C0161617061806E6
S1130800991FF1CF86957105610508940895E894C0
S1130810BB2766277727CB0197F908950E94210407
S11308200C9492040E94840438F00E948B0420F0FB
S1130830952311F00C947B040C94810411240C94E2
S113084008040E94E50370F3959FC1F3950F50E0EF
S1130850551F629FF001729FBB27F00DB11D639F6E
S1130860AA27F00DB11DAA1F649F6627B00DA11D14
S1130870661F829F2227B00DA11D621F739FB00DBA
S1130880A11D621F839FA00D611D221F749F33272A
S1130890A00D611D231F849F600D211D822F762FC3
S11308A06A2F11249F5750409AF0F1F088234AF0A0
S11308B0EE0FFF1FBB1F661F771F881F915050400C
S11308C0A9F79E3F510580F00C947B040C94080416
S11308D05F3FE4F3983ED4F3869577956795B79593
S11308E0F795E7959F5FC1F7FE2B880F911D9695AD
S11308F0879597F9089597F99F6780E870E060E01D
S113090008959FEF80EC089500240A9416161706A4
S113091018060906089500240A94121613061406EC
S113092005060895092E0394000C11F4882352F04F
S1130930BB0F40F4BF2B11F460FF04C06F5F7F4F07
S11309408F4F9F4F0895EE0FFF1F0590F491E02DF8
S11309500994A29FB001B39FC001A39F700D811D94
S11309601124911DB29F700D811D1124911D0895B4
S1070970F894FFCF25
S113097420204E6F206F626A656374006469737427
S10D0984616E63653D00636D0000C1
S9030000FC
